{
    "_format": "hh-sol-artifact-1",
    "contractName": "DCG",
    "contractAddress": "0xcfDA626645d1712b27c97FF2CBA24Db1Aa7B3E96",
    "sourceName": "contracts/TOKEN_1.sol",
    "abi": [
        {
            "inputs": [],
            "stateMutability": "nonpayable",
            "type": "constructor"
        },
        {
            "anonymous": false,
            "inputs": [
                {
                    "indexed": true,
                    "internalType": "address",
                    "name": "owner",
                    "type": "address"
                },
                {
                    "indexed": true,
                    "internalType": "address",
                    "name": "approved",
                    "type": "address"
                },
                {
                    "indexed": true,
                    "internalType": "uint256",
                    "name": "tokenId",
                    "type": "uint256"
                }
            ],
            "name": "Approval",
            "type": "event"
        },
        {
            "anonymous": false,
            "inputs": [
                {
                    "indexed": true,
                    "internalType": "address",
                    "name": "owner",
                    "type": "address"
                },
                {
                    "indexed": true,
                    "internalType": "address",
                    "name": "operator",
                    "type": "address"
                },
                {
                    "indexed": false,
                    "internalType": "bool",
                    "name": "approved",
                    "type": "bool"
                }
            ],
            "name": "ApprovalForAll",
            "type": "event"
        },
        {
            "anonymous": false,
            "inputs": [
                {
                    "indexed": true,
                    "internalType": "address",
                    "name": "previousOwner",
                    "type": "address"
                },
                {
                    "indexed": true,
                    "internalType": "address",
                    "name": "newOwner",
                    "type": "address"
                }
            ],
            "name": "OwnershipTransferred",
            "type": "event"
        },
        {
            "anonymous": false,
            "inputs": [
                {
                    "indexed": true,
                    "internalType": "address",
                    "name": "from",
                    "type": "address"
                },
                {
                    "indexed": true,
                    "internalType": "address",
                    "name": "to",
                    "type": "address"
                },
                {
                    "indexed": true,
                    "internalType": "uint256",
                    "name": "tokenId",
                    "type": "uint256"
                }
            ],
            "name": "Transfer",
            "type": "event"
        },
        {
            "anonymous": false,
            "inputs": [
                {
                    "indexed": true,
                    "internalType": "address",
                    "name": "_to",
                    "type": "address"
                },
                {
                    "indexed": false,
                    "internalType": "uint256",
                    "name": "id",
                    "type": "uint256"
                }
            ],
            "name": "sale",
            "type": "event"
        },
        {
            "inputs": [
                {
                    "internalType": "address",
                    "name": "_address",
                    "type": "address"
                }
            ],
            "name": "addAdministrators",
            "outputs": [],
            "stateMutability": "nonpayable",
            "type": "function"
        },
        {
            "inputs": [
                {
                    "internalType": "address[]",
                    "name": "addresses",
                    "type": "address[]"
                }
            ],
            "name": "addWhitelistAddress",
            "outputs": [],
            "stateMutability": "nonpayable",
            "type": "function"
        },
        {
            "inputs": [
                {
                    "internalType": "address",
                    "name": "to",
                    "type": "address"
                },
                {
                    "internalType": "uint256",
                    "name": "tokenId",
                    "type": "uint256"
                }
            ],
            "name": "approve",
            "outputs": [],
            "stateMutability": "nonpayable",
            "type": "function"
        },
        {
            "inputs": [
                {
                    "internalType": "address",
                    "name": "owner",
                    "type": "address"
                }
            ],
            "name": "balanceOf",
            "outputs": [
                {
                    "internalType": "uint256",
                    "name": "",
                    "type": "uint256"
                }
            ],
            "stateMutability": "view",
            "type": "function"
        },
        {
            "inputs": [
                {
                    "internalType": "uint256",
                    "name": "_id",
                    "type": "uint256"
                }
            ],
            "name": "buyDCGNFT",
            "outputs": [],
            "stateMutability": "payable",
            "type": "function"
        },
        {
            "inputs": [
                {
                    "internalType": "address",
                    "name": "_newAddress",
                    "type": "address"
                }
            ],
            "name": "changeSaleAddress",
            "outputs": [],
            "stateMutability": "nonpayable",
            "type": "function"
        },
        {
            "inputs": [
                {
                    "internalType": "string",
                    "name": "_newUri",
                    "type": "string"
                }
            ],
            "name": "changeTokenUri",
            "outputs": [],
            "stateMutability": "nonpayable",
            "type": "function"
        },
        {
            "inputs": [],
            "name": "creatorAddress",
            "outputs": [
                {
                    "internalType": "address",
                    "name": "",
                    "type": "address"
                }
            ],
            "stateMutability": "view",
            "type": "function"
        },
        {
            "inputs": [],
            "name": "devAddress",
            "outputs": [
                {
                    "internalType": "address",
                    "name": "",
                    "type": "address"
                }
            ],
            "stateMutability": "view",
            "type": "function"
        },
        {
            "inputs": [],
            "name": "diamond",
            "outputs": [
                {
                    "internalType": "uint256",
                    "name": "",
                    "type": "uint256"
                }
            ],
            "stateMutability": "view",
            "type": "function"
        },
        {
            "inputs": [],
            "name": "elite",
            "outputs": [
                {
                    "internalType": "uint256",
                    "name": "",
                    "type": "uint256"
                }
            ],
            "stateMutability": "view",
            "type": "function"
        },
        {
            "inputs": [
                {
                    "internalType": "uint256",
                    "name": "tokenId",
                    "type": "uint256"
                }
            ],
            "name": "getApproved",
            "outputs": [
                {
                    "internalType": "address",
                    "name": "",
                    "type": "address"
                }
            ],
            "stateMutability": "view",
            "type": "function"
        },
        {
            "inputs": [
                {
                    "internalType": "address",
                    "name": "owner",
                    "type": "address"
                },
                {
                    "internalType": "address",
                    "name": "operator",
                    "type": "address"
                }
            ],
            "name": "isApprovedForAll",
            "outputs": [
                {
                    "internalType": "bool",
                    "name": "",
                    "type": "bool"
                }
            ],
            "stateMutability": "view",
            "type": "function"
        },
        {
            "inputs": [],
            "name": "name",
            "outputs": [
                {
                    "internalType": "string",
                    "name": "",
                    "type": "string"
                }
            ],
            "stateMutability": "view",
            "type": "function"
        },
        {
            "inputs": [],
            "name": "og",
            "outputs": [
                {
                    "internalType": "uint256",
                    "name": "",
                    "type": "uint256"
                }
            ],
            "stateMutability": "view",
            "type": "function"
        },
        {
            "inputs": [],
            "name": "owner",
            "outputs": [
                {
                    "internalType": "address",
                    "name": "",
                    "type": "address"
                }
            ],
            "stateMutability": "view",
            "type": "function"
        },
        {
            "inputs": [
                {
                    "internalType": "uint256",
                    "name": "tokenId",
                    "type": "uint256"
                }
            ],
            "name": "ownerOf",
            "outputs": [
                {
                    "internalType": "address",
                    "name": "",
                    "type": "address"
                }
            ],
            "stateMutability": "view",
            "type": "function"
        },
        {
            "inputs": [
                {
                    "internalType": "uint256",
                    "name": "_id",
                    "type": "uint256"
                },
                {
                    "internalType": "address",
                    "name": "_to",
                    "type": "address"
                }
            ],
            "name": "preMintNft",
            "outputs": [],
            "stateMutability": "nonpayable",
            "type": "function"
        },
        {
            "inputs": [
                {
                    "internalType": "uint256[]",
                    "name": "_ids",
                    "type": "uint256[]"
                },
                {
                    "internalType": "address[]",
                    "name": "_to",
                    "type": "address[]"
                }
            ],
            "name": "preMintNftBatch",
            "outputs": [],
            "stateMutability": "nonpayable",
            "type": "function"
        },
        {
            "inputs": [
                {
                    "internalType": "address",
                    "name": "_address",
                    "type": "address"
                }
            ],
            "name": "removeAdministrators",
            "outputs": [],
            "stateMutability": "nonpayable",
            "type": "function"
        },
        {
            "inputs": [
                {
                    "internalType": "address[]",
                    "name": "addresses",
                    "type": "address[]"
                }
            ],
            "name": "removeWhitelistAddress",
            "outputs": [],
            "stateMutability": "nonpayable",
            "type": "function"
        },
        {
            "inputs": [],
            "name": "renounceOwnership",
            "outputs": [],
            "stateMutability": "nonpayable",
            "type": "function"
        },
        {
            "inputs": [
                {
                    "internalType": "address",
                    "name": "from",
                    "type": "address"
                },
                {
                    "internalType": "address",
                    "name": "to",
                    "type": "address"
                },
                {
                    "internalType": "uint256",
                    "name": "tokenId",
                    "type": "uint256"
                }
            ],
            "name": "safeTransferFrom",
            "outputs": [],
            "stateMutability": "nonpayable",
            "type": "function"
        },
        {
            "inputs": [
                {
                    "internalType": "address",
                    "name": "from",
                    "type": "address"
                },
                {
                    "internalType": "address",
                    "name": "to",
                    "type": "address"
                },
                {
                    "internalType": "uint256",
                    "name": "tokenId",
                    "type": "uint256"
                },
                {
                    "internalType": "bytes",
                    "name": "_data",
                    "type": "bytes"
                }
            ],
            "name": "safeTransferFrom",
            "outputs": [],
            "stateMutability": "nonpayable",
            "type": "function"
        },
        {
            "inputs": [
                {
                    "internalType": "address",
                    "name": "operator",
                    "type": "address"
                },
                {
                    "internalType": "bool",
                    "name": "approved",
                    "type": "bool"
                }
            ],
            "name": "setApprovalForAll",
            "outputs": [],
            "stateMutability": "nonpayable",
            "type": "function"
        },
        {
            "inputs": [
                {
                    "internalType": "bytes4",
                    "name": "interfaceId",
                    "type": "bytes4"
                }
            ],
            "name": "supportsInterface",
            "outputs": [
                {
                    "internalType": "bool",
                    "name": "",
                    "type": "bool"
                }
            ],
            "stateMutability": "view",
            "type": "function"
        },
        {
            "inputs": [],
            "name": "symbol",
            "outputs": [
                {
                    "internalType": "string",
                    "name": "",
                    "type": "string"
                }
            ],
            "stateMutability": "view",
            "type": "function"
        },
        {
            "inputs": [],
            "name": "team",
            "outputs": [
                {
                    "internalType": "uint256",
                    "name": "",
                    "type": "uint256"
                }
            ],
            "stateMutability": "view",
            "type": "function"
        },
        {
            "inputs": [],
            "name": "team2",
            "outputs": [
                {
                    "internalType": "uint256",
                    "name": "",
                    "type": "uint256"
                }
            ],
            "stateMutability": "view",
            "type": "function"
        },
        {
            "inputs": [
                {
                    "internalType": "uint256",
                    "name": "_tokenId",
                    "type": "uint256"
                }
            ],
            "name": "tokenURI",
            "outputs": [
                {
                    "internalType": "string",
                    "name": "",
                    "type": "string"
                }
            ],
            "stateMutability": "view",
            "type": "function"
        },
        {
            "inputs": [
                {
                    "internalType": "address",
                    "name": "from",
                    "type": "address"
                },
                {
                    "internalType": "address",
                    "name": "to",
                    "type": "address"
                },
                {
                    "internalType": "uint256",
                    "name": "tokenId",
                    "type": "uint256"
                }
            ],
            "name": "transferFrom",
            "outputs": [],
            "stateMutability": "nonpayable",
            "type": "function"
        },
        {
            "inputs": [
                {
                    "internalType": "address",
                    "name": "newOwner",
                    "type": "address"
                }
            ],
            "name": "transferOwnership",
            "outputs": [],
            "stateMutability": "nonpayable",
            "type": "function"
        },
        {
            "inputs": [
                {
                    "internalType": "address",
                    "name": "",
                    "type": "address"
                }
            ],
            "name": "whitelist",
            "outputs": [
                {
                    "internalType": "bool",
                    "name": "",
                    "type": "bool"
                }
            ],
            "stateMutability": "view",
            "type": "function"
        }
    ],
    "bytecode": "0x60806040526000600b556032600c5560c8600d55610190600e5561028a600f553480156200002c57600080fd5b506040518060400160405280600e81526020017f444347204d61737465726d696e640000000000000000000000000000000000008152506040518060400160405280600381526020017f44434700000000000000000000000000000000000000000000000000000000008152506000620000ab620002f760201b60201c565b9050806000806101000a81548173ffffffffffffffffffffffffffffffffffffffff021916908373ffffffffffffffffffffffffffffffffffffffff1602179055508073ffffffffffffffffffffffffffffffffffffffff16600073ffffffffffffffffffffffffffffffffffffffff167f8be0079c531659141344cd1fd0a4f28419497f9722a3daafe3b4186f6b6457e060405160405180910390a35081600190816200015a919062000579565b5080600290816200016c919062000579565b50505073a82c5d98ee13d3be7a3e3549cb6fa2f0426f809f600860006101000a81548173ffffffffffffffffffffffffffffffffffffffff021916908373ffffffffffffffffffffffffffffffffffffffff160217905550737cf196415cdd1ef08ca2358a8282d33ba089b9f3600960006101000a81548173ffffffffffffffffffffffffffffffffffffffff021916908373ffffffffffffffffffffffffffffffffffffffff16021790555073c2d3eb4d45985f806ad2bb8e0dec9c1c1bd3c960600a60006101000a81548173ffffffffffffffffffffffffffffffffffffffff021916908373ffffffffffffffffffffffffffffffffffffffff16021790555060405180608001604052806044815260200162004e11604491396003908162000298919062000579565b506001601160003373ffffffffffffffffffffffffffffffffffffffff1673ffffffffffffffffffffffffffffffffffffffff16815260200190815260200160002060006101000a81548160ff02191690831515021790555062000660565b600033905090565b600081519050919050565b7f4e487b7100000000000000000000000000000000000000000000000000000000600052604160045260246000fd5b7f4e487b7100000000000000000000000000000000000000000000000000000000600052602260045260246000fd5b600060028204905060018216806200038157607f821691505b60208210810362000397576200039662000339565b5b50919050565b60008190508160005260206000209050919050565b60006020601f8301049050919050565b600082821b905092915050565b600060088302620004017fffffffffffffffffffffffffffffffffffffffffffffffffffffffffffffffff82620003c2565b6200040d8683620003c2565b95508019841693508086168417925050509392505050565b6000819050919050565b6000819050919050565b60006200045a620004546200044e8462000425565b6200042f565b62000425565b9050919050565b6000819050919050565b620004768362000439565b6200048e620004858262000461565b848454620003cf565b825550505050565b600090565b620004a562000496565b620004b28184846200046b565b505050565b5b81811015620004da57620004ce6000826200049b565b600181019050620004b8565b5050565b601f8211156200052957620004f3816200039d565b620004fe84620003b2565b810160208510156200050e578190505b620005266200051d85620003b2565b830182620004b7565b50505b505050565b600082821c905092915050565b60006200054e600019846008026200052e565b1980831691505092915050565b60006200056983836200053b565b9150826002028217905092915050565b6200058482620002ff565b67ffffffffffffffff811115620005a0576200059f6200030a565b5b620005ac825462000368565b620005b9828285620004de565b600060209050601f831160018114620005f15760008415620005dc578287015190505b620005e885826200055b565b86555062000658565b601f19841662000601866200039d565b60005b828110156200062b5784890151825560018201915060208501945060208101905062000604565b868310156200064b578489015162000647601f8916826200053b565b8355505b6001600288020188555050505b505050505050565b6147a180620006706000396000f3fe6080604052600436106101ee5760003560e01c806385f2aef21161010d578063a22cb465116100a0578063e612c0ad1161006f578063e612c0ad146106d6578063e927fc5c14610701578063e985e9c51461072c578063f0b7db4e14610769578063f2fde38b14610794576101ee565b8063a22cb4651461061c578063b88d4fde14610645578063c87b56dd1461066e578063d43cc84f146106ab576101ee565b806395d89b41116100dc57806395d89b41146105625780639b19251a1461058d5780639bf5bf96146105ca578063a20e08ca146105f3576101ee565b806385f2aef2146104b8578063866f6196146104e35780638da5cb5b1461050e57806393cd22b814610539576101ee565b806326826f241161018557806342842e0e1161015457806342842e0e146103fe5780636352211e1461042757806370a0823114610464578063715018a6146104a1576101ee565b806326826f24146103655780632b1dd8e5146103815780633ad10ef6146103aa5780633dde3918146103d5576101ee565b80630b3546df116101c15780630b3546df146102c1578063184bd394146102ea5780631872e9ef1461031357806323b872dd1461033c576101ee565b806301ffc9a7146101f357806306fdde0314610230578063081812fc1461025b578063095ea7b314610298575b600080fd5b3480156101ff57600080fd5b5061021a60048036038101906102159190612cda565b6107bd565b6040516102279190612d22565b60405180910390f35b34801561023c57600080fd5b5061024561089f565b6040516102529190612dcd565b60405180910390f35b34801561026757600080fd5b50610282600480360381019061027d9190612e25565b610931565b60405161028f9190612e93565b60405180910390f35b3480156102a457600080fd5b506102bf60048036038101906102ba9190612eda565b6109b6565b005b3480156102cd57600080fd5b506102e860048036038101906102e39190613125565b610acd565b005b3480156102f657600080fd5b50610311600480360381019061030c919061319d565b610c22565b005b34801561031f57600080fd5b5061033a600480360381019061033591906131ca565b610cfb565b005b34801561034857600080fd5b50610363600480360381019061035e919061320a565b610d9e565b005b61037f600480360381019061037a9190612e25565b610dfe565b005b34801561038d57600080fd5b506103a860048036038101906103a3919061325d565b611208565b005b3480156103b657600080fd5b506103bf611332565b6040516103cc9190612e93565b60405180910390f35b3480156103e157600080fd5b506103fc60048036038101906103f7919061319d565b611358565b005b34801561040a57600080fd5b506104256004803603810190610420919061320a565b611448565b005b34801561043357600080fd5b5061044e60048036038101906104499190612e25565b611468565b60405161045b9190612e93565b60405180910390f35b34801561047057600080fd5b5061048b6004803603810190610486919061319d565b611519565b60405161049891906132b5565b60405180910390f35b3480156104ad57600080fd5b506104b66115d0565b005b3480156104c457600080fd5b506104cd611723565b6040516104da91906132b5565b60405180910390f35b3480156104ef57600080fd5b506104f8611729565b60405161050591906132b5565b60405180910390f35b34801561051a57600080fd5b5061052361172f565b6040516105309190612e93565b60405180910390f35b34801561054557600080fd5b50610560600480360381019061055b919061319d565b611758565b005b34801561056e57600080fd5b50610577611848565b6040516105849190612dcd565b60405180910390f35b34801561059957600080fd5b506105b460048036038101906105af919061319d565b6118da565b6040516105c19190612d22565b60405180910390f35b3480156105d657600080fd5b506105f160048036038101906105ec919061325d565b6118fa565b005b3480156105ff57600080fd5b5061061a60048036038101906106159190613385565b611a24565b005b34801561062857600080fd5b50610643600480360381019061063e91906133fa565b611acc565b005b34801561065157600080fd5b5061066c600480360381019061066791906134db565b611c4c565b005b34801561067a57600080fd5b5061069560048036038101906106909190612e25565b611cae565b6040516106a29190612dcd565b60405180910390f35b3480156106b757600080fd5b506106c0611d55565b6040516106cd91906132b5565b60405180910390f35b3480156106e257600080fd5b506106eb611d5b565b6040516106f891906132b5565b60405180910390f35b34801561070d57600080fd5b50610716611d61565b6040516107239190612e93565b60405180910390f35b34801561073857600080fd5b50610753600480360381019061074e919061355e565b611d87565b6040516107609190612d22565b60405180910390f35b34801561077557600080fd5b5061077e611e1b565b60405161078b91906132b5565b60405180910390f35b3480156107a057600080fd5b506107bb60048036038101906107b6919061319d565b611e21565b005b60007f80ac58cd000000000000000000000000000000000000000000000000000000007bffffffffffffffffffffffffffffffffffffffffffffffffffffffff1916827bffffffffffffffffffffffffffffffffffffffffffffffffffffffff1916148061088857507f5b5e139f000000000000000000000000000000000000000000000000000000007bffffffffffffffffffffffffffffffffffffffffffffffffffffffff1916827bffffffffffffffffffffffffffffffffffffffffffffffffffffffff1916145b80610898575061089782611fe2565b5b9050919050565b6060600180546108ae906135cd565b80601f01602080910402602001604051908101604052809291908181526020018280546108da906135cd565b80156109275780601f106108fc57610100808354040283529160200191610927565b820191906000526020600020905b81548152906001019060200180831161090a57829003601f168201915b5050505050905090565b600061093c8261204c565b61097b576040517f08c379a000000000000000000000000000000000000000000000000000000000815260040161097290613670565b60405180910390fd5b6006600083815260200190815260200160002060009054906101000a900473ffffffffffffffffffffffffffffffffffffffff169050919050565b60006109c182611468565b90508073ffffffffffffffffffffffffffffffffffffffff168373ffffffffffffffffffffffffffffffffffffffff1603610a31576040517f08c379a0000000000000000000000000000000000000000000000000000000008152600401610a2890613702565b60405180910390fd5b8073ffffffffffffffffffffffffffffffffffffffff16610a506120b8565b73ffffffffffffffffffffffffffffffffffffffff161480610a7f5750610a7e81610a796120b8565b611d87565b5b610abe576040517f08c379a0000000000000000000000000000000000000000000000000000000008152600401610ab590613794565b60405180910390fd5b610ac883836120c0565b505050565b601160003373ffffffffffffffffffffffffffffffffffffffff1673ffffffffffffffffffffffffffffffffffffffff16815260200190815260200160002060009054906101000a900460ff16610b59576040517f08c379a0000000000000000000000000000000000000000000000000000000008152600401610b5090613800565b60405180910390fd5b8051825114610b9d576040517f08c379a0000000000000000000000000000000000000000000000000000000008152600401610b949061386c565b60405180910390fd5b60005b8251811015610c1d57610be7828281518110610bbf57610bbe61388c565b5b6020026020010151848381518110610bda57610bd961388c565b5b6020026020010151612179565b610c0a838281518110610bfd57610bfc61388c565b5b6020026020010151612346565b8080610c15906138ea565b915050610ba0565b505050565b610c2a6120b8565b73ffffffffffffffffffffffffffffffffffffffff1660008054906101000a900473ffffffffffffffffffffffffffffffffffffffff1673ffffffffffffffffffffffffffffffffffffffff1614610cb7576040517f08c379a0000000000000000000000000000000000000000000000000000000008152600401610cae9061397e565b60405180910390fd5b80600860006101000a81548173ffffffffffffffffffffffffffffffffffffffff021916908373ffffffffffffffffffffffffffffffffffffffff16021790555050565b601160003373ffffffffffffffffffffffffffffffffffffffff1673ffffffffffffffffffffffffffffffffffffffff16815260200190815260200160002060009054906101000a900460ff16610d87576040517f08c379a0000000000000000000000000000000000000000000000000000000008152600401610d7e90613800565b60405180910390fd5b610d918183612179565b610d9a82612346565b5050565b610daf610da96120b8565b82612431565b610dee576040517f08c379a0000000000000000000000000000000000000000000000000000000008152600401610de590613a10565b60405180910390fd5b610df983838361250f565b505050565b6010600082815260200190815260200160002060009054906101000a900460ff1615610e5f576040517f08c379a0000000000000000000000000000000000000000000000000000000008152600401610e5690613aa2565b60405180910390fd5b601260003373ffffffffffffffffffffffffffffffffffffffff1673ffffffffffffffffffffffffffffffffffffffff16815260200190815260200160002060009054906101000a900460ff16610f105767016345785d8a00003410158015610ed05750674563918244f400003411155b610f0f576040517f08c379a0000000000000000000000000000000000000000000000000000000008152600401610f0690613b0e565b60405180910390fd5b5b6103e7811115610f55576040517f08c379a0000000000000000000000000000000000000000000000000000000008152600401610f4c90613b7a565b60405180910390fd5b610f5e8161276a565b3414610f9f576040517f08c379a0000000000000000000000000000000000000000000000000000000008152600401610f9690613c0c565b60405180910390fd5b610fb0610faa6120b8565b82612179565b60016010600083815260200190815260200160002060006101000a81548160ff021916908315150217905550600860009054906101000a900473ffffffffffffffffffffffffffffffffffffffff1673ffffffffffffffffffffffffffffffffffffffff166108fc60646058346110279190613c2c565b6110319190613cb5565b9081150290604051600060405180830381858888f1935050505015801561105c573d6000803e3d6000fd5b50600960009054906101000a900473ffffffffffffffffffffffffffffffffffffffff1673ffffffffffffffffffffffffffffffffffffffff166108fc60646006346110a89190613c2c565b6110b29190613cb5565b9081150290604051600060405180830381858888f193505050501580156110dd573d6000803e3d6000fd5b50600a60009054906101000a900473ffffffffffffffffffffffffffffffffffffffff1673ffffffffffffffffffffffffffffffffffffffff166108fc60646006346111299190613c2c565b6111339190613cb5565b9081150290604051600060405180830381858888f1935050505015801561115e573d6000803e3d6000fd5b506000601260003373ffffffffffffffffffffffffffffffffffffffff1673ffffffffffffffffffffffffffffffffffffffff16815260200190815260200160002060006101000a81548160ff0219169083151502179055503373ffffffffffffffffffffffffffffffffffffffff167f611efc09913fa36c4426aee8b47fa356982a4793a490fda6913da8fb44401e36826040516111fd91906132b5565b60405180910390a250565b6112106120b8565b73ffffffffffffffffffffffffffffffffffffffff1660008054906101000a900473ffffffffffffffffffffffffffffffffffffffff1673ffffffffffffffffffffffffffffffffffffffff161461129d576040517f08c379a00000000000000000000000000000000000000000000000000000000081526004016112949061397e565b60405180910390fd5b60005b815181101561132e576001601260008484815181106112c2576112c161388c565b5b602002602001015173ffffffffffffffffffffffffffffffffffffffff1673ffffffffffffffffffffffffffffffffffffffff16815260200190815260200160002060006101000a81548160ff0219169083151502179055508080611326906138ea565b9150506112a0565b5050565b600960009054906101000a900473ffffffffffffffffffffffffffffffffffffffff1681565b6113606120b8565b73ffffffffffffffffffffffffffffffffffffffff1660008054906101000a900473ffffffffffffffffffffffffffffffffffffffff1673ffffffffffffffffffffffffffffffffffffffff16146113ed576040517f08c379a00000000000000000000000000000000000000000000000000000000081526004016113e49061397e565b60405180910390fd5b6000601160008373ffffffffffffffffffffffffffffffffffffffff1673ffffffffffffffffffffffffffffffffffffffff16815260200190815260200160002060006101000a81548160ff02191690831515021790555050565b61146383838360405180602001604052806000815250611c4c565b505050565b6000806004600084815260200190815260200160002060009054906101000a900473ffffffffffffffffffffffffffffffffffffffff169050600073ffffffffffffffffffffffffffffffffffffffff168173ffffffffffffffffffffffffffffffffffffffff1603611510576040517f08c379a000000000000000000000000000000000000000000000000000000000815260040161150790613d58565b60405180910390fd5b80915050919050565b60008073ffffffffffffffffffffffffffffffffffffffff168273ffffffffffffffffffffffffffffffffffffffff1603611589576040517f08c379a000000000000000000000000000000000000000000000000000000000815260040161158090613dea565b60405180910390fd5b600560008373ffffffffffffffffffffffffffffffffffffffff1673ffffffffffffffffffffffffffffffffffffffff168152602001908152602001600020549050919050565b6115d86120b8565b73ffffffffffffffffffffffffffffffffffffffff1660008054906101000a900473ffffffffffffffffffffffffffffffffffffffff1673ffffffffffffffffffffffffffffffffffffffff1614611665576040517f08c379a000000000000000000000000000000000000000000000000000000000815260040161165c9061397e565b60405180910390fd5b600073ffffffffffffffffffffffffffffffffffffffff1660008054906101000a900473ffffffffffffffffffffffffffffffffffffffff1673ffffffffffffffffffffffffffffffffffffffff167f8be0079c531659141344cd1fd0a4f28419497f9722a3daafe3b4186f6b6457e060405160405180910390a360008060006101000a81548173ffffffffffffffffffffffffffffffffffffffff021916908373ffffffffffffffffffffffffffffffffffffffff160217905550565b600e5481565b600c5481565b60008060009054906101000a900473ffffffffffffffffffffffffffffffffffffffff16905090565b6117606120b8565b73ffffffffffffffffffffffffffffffffffffffff1660008054906101000a900473ffffffffffffffffffffffffffffffffffffffff1673ffffffffffffffffffffffffffffffffffffffff16146117ed576040517f08c379a00000000000000000000000000000000000000000000000000000000081526004016117e49061397e565b60405180910390fd5b6001601160008373ffffffffffffffffffffffffffffffffffffffff1673ffffffffffffffffffffffffffffffffffffffff16815260200190815260200160002060006101000a81548160ff02191690831515021790555050565b606060028054611857906135cd565b80601f0160208091040260200160405190810160405280929190818152602001828054611883906135cd565b80156118d05780601f106118a5576101008083540402835291602001916118d0565b820191906000526020600020905b8154815290600101906020018083116118b357829003601f168201915b5050505050905090565b60126020528060005260406000206000915054906101000a900460ff1681565b6119026120b8565b73ffffffffffffffffffffffffffffffffffffffff1660008054906101000a900473ffffffffffffffffffffffffffffffffffffffff1673ffffffffffffffffffffffffffffffffffffffff161461198f576040517f08c379a00000000000000000000000000000000000000000000000000000000081526004016119869061397e565b60405180910390fd5b60005b8151811015611a20576000601260008484815181106119b4576119b361388c565b5b602002602001015173ffffffffffffffffffffffffffffffffffffffff1673ffffffffffffffffffffffffffffffffffffffff16815260200190815260200160002060006101000a81548160ff0219169083151502179055508080611a18906138ea565b915050611992565b5050565b611a2c6120b8565b73ffffffffffffffffffffffffffffffffffffffff1660008054906101000a900473ffffffffffffffffffffffffffffffffffffffff1673ffffffffffffffffffffffffffffffffffffffff1614611ab9576040517f08c379a0000000000000000000000000000000000000000000000000000000008152600401611ab09061397e565b60405180910390fd5b8060039081611ac89190613fb6565b5050565b611ad46120b8565b73ffffffffffffffffffffffffffffffffffffffff168273ffffffffffffffffffffffffffffffffffffffff1603611b41576040517f08c379a0000000000000000000000000000000000000000000000000000000008152600401611b38906140d4565b60405180910390fd5b8060076000611b4e6120b8565b73ffffffffffffffffffffffffffffffffffffffff1673ffffffffffffffffffffffffffffffffffffffff16815260200190815260200160002060008473ffffffffffffffffffffffffffffffffffffffff1673ffffffffffffffffffffffffffffffffffffffff16815260200190815260200160002060006101000a81548160ff0219169083151502179055508173ffffffffffffffffffffffffffffffffffffffff16611bfb6120b8565b73ffffffffffffffffffffffffffffffffffffffff167f17307eab39ab6107e8899845ad3d59bd9653f200f220920489ca2b5937696c3183604051611c409190612d22565b60405180910390a35050565b611c5d611c576120b8565b83612431565b611c9c576040517f08c379a0000000000000000000000000000000000000000000000000000000008152600401611c9390613a10565b60405180910390fd5b611ca884848484612881565b50505050565b6060611cb98261204c565b611cf8576040517f08c379a0000000000000000000000000000000000000000000000000000000008152600401611cef90614166565b60405180910390fd5b6000611d026128dd565b90506000815111611d225760405180602001604052806000815250611d4d565b80611d2c8461296f565b604051602001611d3d92919061420e565b6040516020818303038152906040525b915050919050565b600d5481565b600f5481565b600a60009054906101000a900473ffffffffffffffffffffffffffffffffffffffff1681565b6000600760008473ffffffffffffffffffffffffffffffffffffffff1673ffffffffffffffffffffffffffffffffffffffff16815260200190815260200160002060008373ffffffffffffffffffffffffffffffffffffffff1673ffffffffffffffffffffffffffffffffffffffff16815260200190815260200160002060009054906101000a900460ff16905092915050565b600b5481565b611e296120b8565b73ffffffffffffffffffffffffffffffffffffffff1660008054906101000a900473ffffffffffffffffffffffffffffffffffffffff1673ffffffffffffffffffffffffffffffffffffffff1614611eb6576040517f08c379a0000000000000000000000000000000000000000000000000000000008152600401611ead9061397e565b60405180910390fd5b600073ffffffffffffffffffffffffffffffffffffffff168173ffffffffffffffffffffffffffffffffffffffff1603611f25576040517f08c379a0000000000000000000000000000000000000000000000000000000008152600401611f1c906142af565b60405180910390fd5b8073ffffffffffffffffffffffffffffffffffffffff1660008054906101000a900473ffffffffffffffffffffffffffffffffffffffff1673ffffffffffffffffffffffffffffffffffffffff167f8be0079c531659141344cd1fd0a4f28419497f9722a3daafe3b4186f6b6457e060405160405180910390a3806000806101000a81548173ffffffffffffffffffffffffffffffffffffffff021916908373ffffffffffffffffffffffffffffffffffffffff16021790555050565b60007f01ffc9a7000000000000000000000000000000000000000000000000000000007bffffffffffffffffffffffffffffffffffffffffffffffffffffffff1916827bffffffffffffffffffffffffffffffffffffffffffffffffffffffff1916149050919050565b60008073ffffffffffffffffffffffffffffffffffffffff166004600084815260200190815260200160002060009054906101000a900473ffffffffffffffffffffffffffffffffffffffff1673ffffffffffffffffffffffffffffffffffffffff1614159050919050565b600033905090565b816006600083815260200190815260200160002060006101000a81548173ffffffffffffffffffffffffffffffffffffffff021916908373ffffffffffffffffffffffffffffffffffffffff160217905550808273ffffffffffffffffffffffffffffffffffffffff1661213383611468565b73ffffffffffffffffffffffffffffffffffffffff167f8c5be1e5ebec7d5bd14f71427d1e84f3dd0314c0f7b2291e5b200ac8c7c3b92560405160405180910390a45050565b600073ffffffffffffffffffffffffffffffffffffffff168273ffffffffffffffffffffffffffffffffffffffff16036121e8576040517f08c379a00000000000000000000000000000000000000000000000000000000081526004016121df9061431b565b60405180910390fd5b6121f18161204c565b15612231576040517f08c379a000000000000000000000000000000000000000000000000000000000815260040161222890614387565b60405180910390fd5b61223d60008383612acf565b6001600560008473ffffffffffffffffffffffffffffffffffffffff1673ffffffffffffffffffffffffffffffffffffffff168152602001908152602001600020600082825461228d91906143a7565b92505081905550816004600083815260200190815260200160002060006101000a81548173ffffffffffffffffffffffffffffffffffffffff021916908373ffffffffffffffffffffffffffffffffffffffff160217905550808273ffffffffffffffffffffffffffffffffffffffff16600073ffffffffffffffffffffffffffffffffffffffff167fddf252ad1be2c89b69c2b068fc378daa952ba7f163c4a11628f55a4df523b3ef60405160405180910390a45050565b603281101561236c57600b6000815480929190612362906138ea565b919050555061242e565b6032811015801561237d575060c881105b1561239f57600c6000815480929190612395906138ea565b919050555061242d565b60c881101580156123b1575061019081105b156123d357600d60008154809291906123c9906138ea565b919050555061242c565b61019081101580156123e6575061028a81105b1561240857600e60008154809291906123fe906138ea565b919050555061242b565b61028a811061242a57600f6000815480929190612424906138ea565b91905055505b5b5b5b5b50565b600061243c8261204c565b61247b576040517f08c379a00000000000000000000000000000000000000000000000000000000081526004016124729061444d565b60405180910390fd5b600061248683611468565b90508073ffffffffffffffffffffffffffffffffffffffff168473ffffffffffffffffffffffffffffffffffffffff1614806124f557508373ffffffffffffffffffffffffffffffffffffffff166124dd84610931565b73ffffffffffffffffffffffffffffffffffffffff16145b8061250657506125058185611d87565b5b91505092915050565b8273ffffffffffffffffffffffffffffffffffffffff1661252f82611468565b73ffffffffffffffffffffffffffffffffffffffff1614612585576040517f08c379a000000000000000000000000000000000000000000000000000000000815260040161257c906144df565b60405180910390fd5b600073ffffffffffffffffffffffffffffffffffffffff168273ffffffffffffffffffffffffffffffffffffffff16036125f4576040517f08c379a00000000000000000000000000000000000000000000000000000000081526004016125eb90614571565b60405180910390fd5b6125ff838383612acf565b61260a6000826120c0565b6001600560008573ffffffffffffffffffffffffffffffffffffffff1673ffffffffffffffffffffffffffffffffffffffff168152602001908152602001600020600082825461265a9190614591565b925050819055506001600560008473ffffffffffffffffffffffffffffffffffffffff1673ffffffffffffffffffffffffffffffffffffffff16815260200190815260200160002060008282546126b191906143a7565b92505081905550816004600083815260200190815260200160002060006101000a81548173ffffffffffffffffffffffffffffffffffffffff021916908373ffffffffffffffffffffffffffffffffffffffff160217905550808273ffffffffffffffffffffffffffffffffffffffff168473ffffffffffffffffffffffffffffffffffffffff167fddf252ad1be2c89b69c2b068fc378daa952ba7f163c4a11628f55a4df523b3ef60405160405180910390a4505050565b600061277582612346565b603282101561278e57674563918244f40000905061287c565b6032821015801561279f575060c882105b156127b4576729a2241af62c0000905061287c565b60c882101580156127c6575061019082105b156127db57670de0b6b3a7640000905061287c565b61019082101580156127ee575061028a82105b15612803576706f05b59d3b20000905061287c565b61028a821061287757601260003373ffffffffffffffffffffffffffffffffffffffff1673ffffffffffffffffffffffffffffffffffffffff16815260200190815260200160002060009054906101000a900460ff1615612867576000905061287c565b67016345785d8a0000905061287c565b600090505b919050565b61288c84848461250f565b61289884848484612ad4565b6128d7576040517f08c379a00000000000000000000000000000000000000000000000000000000081526004016128ce90614637565b60405180910390fd5b50505050565b6060600380546128ec906135cd565b80601f0160208091040260200160405190810160405280929190818152602001828054612918906135cd565b80156129655780601f1061293a57610100808354040283529160200191612965565b820191906000526020600020905b81548152906001019060200180831161294857829003601f168201915b5050505050905090565b6060600082036129b6576040518060400160405280600181526020017f30000000000000000000000000000000000000000000000000000000000000008152509050612aca565b600082905060005b600082146129e85780806129d1906138ea565b915050600a826129e19190613cb5565b91506129be565b60008167ffffffffffffffff811115612a0457612a03612f1f565b5b6040519080825280601f01601f191660200182016040528015612a365781602001600182028036833780820191505090505b5090505b60008514612ac357600182612a4f9190614591565b9150600a85612a5e9190614657565b6030612a6a91906143a7565b60f81b818381518110612a8057612a7f61388c565b5b60200101907effffffffffffffffffffffffffffffffffffffffffffffffffffffffffffff1916908160001a905350600a85612abc9190613cb5565b9450612a3a565b8093505050505b919050565b505050565b6000612af58473ffffffffffffffffffffffffffffffffffffffff16612c5b565b15612c4e578373ffffffffffffffffffffffffffffffffffffffff1663150b7a02612b1e6120b8565b8786866040518563ffffffff1660e01b8152600401612b4094939291906146dd565b6020604051808303816000875af1925050508015612b7c57506040513d601f19601f82011682018060405250810190612b79919061473e565b60015b612bfe573d8060008114612bac576040519150601f19603f3d011682016040523d82523d6000602084013e612bb1565b606091505b506000815103612bf6576040517f08c379a0000000000000000000000000000000000000000000000000000000008152600401612bed90614637565b60405180910390fd5b805181602001fd5b63150b7a0260e01b7bffffffffffffffffffffffffffffffffffffffffffffffffffffffff1916817bffffffffffffffffffffffffffffffffffffffffffffffffffffffff191614915050612c53565b600190505b949350505050565b600080823b905060008111915050919050565b6000604051905090565b600080fd5b600080fd5b60007fffffffff0000000000000000000000000000000000000000000000000000000082169050919050565b612cb781612c82565b8114612cc257600080fd5b50565b600081359050612cd481612cae565b92915050565b600060208284031215612cf057612cef612c78565b5b6000612cfe84828501612cc5565b91505092915050565b60008115159050919050565b612d1c81612d07565b82525050565b6000602082019050612d376000830184612d13565b92915050565b600081519050919050565b600082825260208201905092915050565b60005b83811015612d77578082015181840152602081019050612d5c565b60008484015250505050565b6000601f19601f8301169050919050565b6000612d9f82612d3d565b612da98185612d48565b9350612db9818560208601612d59565b612dc281612d83565b840191505092915050565b60006020820190508181036000830152612de78184612d94565b905092915050565b6000819050919050565b612e0281612def565b8114612e0d57600080fd5b50565b600081359050612e1f81612df9565b92915050565b600060208284031215612e3b57612e3a612c78565b5b6000612e4984828501612e10565b91505092915050565b600073ffffffffffffffffffffffffffffffffffffffff82169050919050565b6000612e7d82612e52565b9050919050565b612e8d81612e72565b82525050565b6000602082019050612ea86000830184612e84565b92915050565b612eb781612e72565b8114612ec257600080fd5b50565b600081359050612ed481612eae565b92915050565b60008060408385031215612ef157612ef0612c78565b5b6000612eff85828601612ec5565b9250506020612f1085828601612e10565b9150509250929050565b600080fd5b7f4e487b7100000000000000000000000000000000000000000000000000000000600052604160045260246000fd5b612f5782612d83565b810181811067ffffffffffffffff82111715612f7657612f75612f1f565b5b80604052505050565b6000612f89612c6e565b9050612f958282612f4e565b919050565b600067ffffffffffffffff821115612fb557612fb4612f1f565b5b602082029050602081019050919050565b600080fd5b6000612fde612fd984612f9a565b612f7f565b9050808382526020820190506020840283018581111561300157613000612fc6565b5b835b8181101561302a57806130168882612e10565b845260208401935050602081019050613003565b5050509392505050565b600082601f83011261304957613048612f1a565b5b8135613059848260208601612fcb565b91505092915050565b600067ffffffffffffffff82111561307d5761307c612f1f565b5b602082029050602081019050919050565b60006130a161309c84613062565b612f7f565b905080838252602082019050602084028301858111156130c4576130c3612fc6565b5b835b818110156130ed57806130d98882612ec5565b8452602084019350506020810190506130c6565b5050509392505050565b600082601f83011261310c5761310b612f1a565b5b813561311c84826020860161308e565b91505092915050565b6000806040838503121561313c5761313b612c78565b5b600083013567ffffffffffffffff81111561315a57613159612c7d565b5b61316685828601613034565b925050602083013567ffffffffffffffff81111561318757613186612c7d565b5b613193858286016130f7565b9150509250929050565b6000602082840312156131b3576131b2612c78565b5b60006131c184828501612ec5565b91505092915050565b600080604083850312156131e1576131e0612c78565b5b60006131ef85828601612e10565b925050602061320085828601612ec5565b9150509250929050565b60008060006060848603121561322357613222612c78565b5b600061323186828701612ec5565b935050602061324286828701612ec5565b925050604061325386828701612e10565b9150509250925092565b60006020828403121561327357613272612c78565b5b600082013567ffffffffffffffff81111561329157613290612c7d565b5b61329d848285016130f7565b91505092915050565b6132af81612def565b82525050565b60006020820190506132ca60008301846132a6565b92915050565b600080fd5b600067ffffffffffffffff8211156132f0576132ef612f1f565b5b6132f982612d83565b9050602081019050919050565b82818337600083830152505050565b6000613328613323846132d5565b612f7f565b905082815260208101848484011115613344576133436132d0565b5b61334f848285613306565b509392505050565b600082601f83011261336c5761336b612f1a565b5b813561337c848260208601613315565b91505092915050565b60006020828403121561339b5761339a612c78565b5b600082013567ffffffffffffffff8111156133b9576133b8612c7d565b5b6133c584828501613357565b91505092915050565b6133d781612d07565b81146133e257600080fd5b50565b6000813590506133f4816133ce565b92915050565b6000806040838503121561341157613410612c78565b5b600061341f85828601612ec5565b9250506020613430858286016133e5565b9150509250929050565b600067ffffffffffffffff82111561345557613454612f1f565b5b61345e82612d83565b9050602081019050919050565b600061347e6134798461343a565b612f7f565b90508281526020810184848401111561349a576134996132d0565b5b6134a5848285613306565b509392505050565b600082601f8301126134c2576134c1612f1a565b5b81356134d284826020860161346b565b91505092915050565b600080600080608085870312156134f5576134f4612c78565b5b600061350387828801612ec5565b945050602061351487828801612ec5565b935050604061352587828801612e10565b925050606085013567ffffffffffffffff81111561354657613545612c7d565b5b613552878288016134ad565b91505092959194509250565b6000806040838503121561357557613574612c78565b5b600061358385828601612ec5565b925050602061359485828601612ec5565b9150509250929050565b7f4e487b7100000000000000000000000000000000000000000000000000000000600052602260045260246000fd5b600060028204905060018216806135e557607f821691505b6020821081036135f8576135f761359e565b5b50919050565b7f4552433732313a20417070726f76656420717565727920666f72206e6f6e657860008201527f697374656e7420746f6b656e0000000000000000000000000000000000000000602082015250565b600061365a602c83612d48565b9150613665826135fe565b604082019050919050565b600060208201905081810360008301526136898161364d565b9050919050565b7f4552433732313a20417070726f76616c20746f2063757272656e74206f776e6560008201527f7200000000000000000000000000000000000000000000000000000000000000602082015250565b60006136ec602183612d48565b91506136f782613690565b604082019050919050565b6000602082019050818103600083015261371b816136df565b9050919050565b7f4552433732313a20417070726f76652063616c6c6572206973206e6f74206f7760008201527f6e6572206e6f7220617070726f76656420666f7220616c6c0000000000000000602082015250565b600061377e603883612d48565b915061378982613722565b604082019050919050565b600060208201905081810360008301526137ad81613771565b9050919050565b7f4552524f523a20596f7520617265206e6f7420616c6c6f776564000000000000600082015250565b60006137ea601a83612d48565b91506137f5826137b4565b602082019050919050565b60006020820190508181036000830152613819816137dd565b9050919050565b7f4552524f523a2057726f6e672061646472657373206f72206964000000000000600082015250565b6000613856601a83612d48565b915061386182613820565b602082019050919050565b6000602082019050818103600083015261388581613849565b9050919050565b7f4e487b7100000000000000000000000000000000000000000000000000000000600052603260045260246000fd5b7f4e487b7100000000000000000000000000000000000000000000000000000000600052601160045260246000fd5b60006138f582612def565b91507fffffffffffffffffffffffffffffffffffffffffffffffffffffffffffffffff8203613927576139266138bb565b5b600182019050919050565b7f4f776e61626c653a2043616c6c6572206973206e6f7420746865206f776e6572600082015250565b6000613968602083612d48565b915061397382613932565b602082019050919050565b600060208201905081810360008301526139978161395b565b9050919050565b7f4552433732313a205472616e736665722063616c6c6572206973206e6f74206f60008201527f776e6572206e6f7220617070726f766564000000000000000000000000000000602082015250565b60006139fa603183612d48565b9150613a058261399e565b604082019050919050565b60006020820190508181036000830152613a29816139ed565b9050919050565b7f4552524f523a205468697320746f6b656e2068617320616c726561647920707560008201527f7263686173656400000000000000000000000000000000000000000000000000602082015250565b6000613a8c602783612d48565b9150613a9782613a30565b604082019050919050565b60006020820190508181036000830152613abb81613a7f565b9050919050565b7f4552524f523a2057726f6e672070726963652072616e67650000000000000000600082015250565b6000613af8601883612d48565b9150613b0382613ac2565b602082019050919050565b60006020820190508181036000830152613b2781613aeb565b9050919050565b7f4552524f523a204f6e6c7920393939206c696d69740000000000000000000000600082015250565b6000613b64601583612d48565b9150613b6f82613b2e565b602082019050919050565b60006020820190508181036000830152613b9381613b57565b9050919050565b7f4552524f523a20596f7520686176652070726f766964652077726f6e6720707260008201527f69636520616761696e73742074686520746f6b656e6964000000000000000000602082015250565b6000613bf6603783612d48565b9150613c0182613b9a565b604082019050919050565b60006020820190508181036000830152613c2581613be9565b9050919050565b6000613c3782612def565b9150613c4283612def565b9250817fffffffffffffffffffffffffffffffffffffffffffffffffffffffffffffffff0483118215151615613c7b57613c7a6138bb565b5b828202905092915050565b7f4e487b7100000000000000000000000000000000000000000000000000000000600052601260045260246000fd5b6000613cc082612def565b9150613ccb83612def565b925082613cdb57613cda613c86565b5b828204905092915050565b7f4552433732313a204f776e657220717565727920666f72206e6f6e657869737460008201527f656e7420746f6b656e0000000000000000000000000000000000000000000000602082015250565b6000613d42602983612d48565b9150613d4d82613ce6565b604082019050919050565b60006020820190508181036000830152613d7181613d35565b9050919050565b7f4552433732313a2042616c616e636520717565727920666f7220746865207a6560008201527f726f206164647265737300000000000000000000000000000000000000000000602082015250565b6000613dd4602a83612d48565b9150613ddf82613d78565b604082019050919050565b60006020820190508181036000830152613e0381613dc7565b9050919050565b60008190508160005260206000209050919050565b60006020601f8301049050919050565b600082821b905092915050565b600060088302613e6c7fffffffffffffffffffffffffffffffffffffffffffffffffffffffffffffffff82613e2f565b613e768683613e2f565b95508019841693508086168417925050509392505050565b6000819050919050565b6000613eb3613eae613ea984612def565b613e8e565b612def565b9050919050565b6000819050919050565b613ecd83613e98565b613ee1613ed982613eba565b848454613e3c565b825550505050565b600090565b613ef6613ee9565b613f01818484613ec4565b505050565b5b81811015613f2557613f1a600082613eee565b600181019050613f07565b5050565b601f821115613f6a57613f3b81613e0a565b613f4484613e1f565b81016020851015613f53578190505b613f67613f5f85613e1f565b830182613f06565b50505b505050565b600082821c905092915050565b6000613f8d60001984600802613f6f565b1980831691505092915050565b6000613fa68383613f7c565b9150826002028217905092915050565b613fbf82612d3d565b67ffffffffffffffff811115613fd857613fd7612f1f565b5b613fe282546135cd565b613fed828285613f29565b600060209050601f831160018114614020576000841561400e578287015190505b6140188582613f9a565b865550614080565b601f19841661402e86613e0a565b60005b8281101561405657848901518255600182019150602085019450602081019050614031565b86831015614073578489015161406f601f891682613f7c565b8355505b6001600288020188555050505b505050505050565b7f4552433732313a20417070726f766520746f2063616c6c657200000000000000600082015250565b60006140be601983612d48565b91506140c982614088565b602082019050919050565b600060208201905081810360008301526140ed816140b1565b9050919050565b7f4552433732314d657461646174613a2055524920717565727920666f72206e6f60008201527f6e6578697374656e7420746f6b656e0000000000000000000000000000000000602082015250565b6000614150602f83612d48565b915061415b826140f4565b604082019050919050565b6000602082019050818103600083015261417f81614143565b9050919050565b600081905092915050565b600061419c82612d3d565b6141a68185614186565b93506141b6818560208601612d59565b80840191505092915050565b7f2e6a736f6e000000000000000000000000000000000000000000000000000000600082015250565b60006141f8600583614186565b9150614203826141c2565b600582019050919050565b600061421a8285614191565b91506142268284614191565b9150614231826141eb565b91508190509392505050565b7f4f776e61626c653a204e6577206f776e657220697320746865207a65726f206160008201527f6464726573730000000000000000000000000000000000000000000000000000602082015250565b6000614299602683612d48565b91506142a48261423d565b604082019050919050565b600060208201905081810360008301526142c88161428c565b9050919050565b7f4552433732313a204d696e7420746f20746865207a65726f2061646472657373600082015250565b6000614305602083612d48565b9150614310826142cf565b602082019050919050565b60006020820190508181036000830152614334816142f8565b9050919050565b7f4552433732313a20546f6b656e20616c7265616479206d696e74656400000000600082015250565b6000614371601c83612d48565b915061437c8261433b565b602082019050919050565b600060208201905081810360008301526143a081614364565b9050919050565b60006143b282612def565b91506143bd83612def565b92508282019050808211156143d5576143d46138bb565b5b92915050565b7f4552433732313a204f70657261746f7220717565727920666f72206e6f6e657860008201527f697374656e7420746f6b656e0000000000000000000000000000000000000000602082015250565b6000614437602c83612d48565b9150614442826143db565b604082019050919050565b600060208201905081810360008301526144668161442a565b9050919050565b7f4552433732313a205472616e73666572206f6620746f6b656e2074686174206960008201527f73206e6f74206f776e0000000000000000000000000000000000000000000000602082015250565b60006144c9602983612d48565b91506144d48261446d565b604082019050919050565b600060208201905081810360008301526144f8816144bc565b9050919050565b7f4552433732313a205472616e7366657220746f20746865207a65726f2061646460008201527f7265737300000000000000000000000000000000000000000000000000000000602082015250565b600061455b602483612d48565b9150614566826144ff565b604082019050919050565b6000602082019050818103600083015261458a8161454e565b9050919050565b600061459c82612def565b91506145a783612def565b92508282039050818111156145bf576145be6138bb565b5b92915050565b7f4552433732313a205472616e7366657220746f206e6f6e20455243373231526560008201527f63656976657220696d706c656d656e7465720000000000000000000000000000602082015250565b6000614621603283612d48565b915061462c826145c5565b604082019050919050565b6000602082019050818103600083015261465081614614565b9050919050565b600061466282612def565b915061466d83612def565b92508261467d5761467c613c86565b5b828206905092915050565b600081519050919050565b600082825260208201905092915050565b60006146af82614688565b6146b98185614693565b93506146c9818560208601612d59565b6146d281612d83565b840191505092915050565b60006080820190506146f26000830187612e84565b6146ff6020830186612e84565b61470c60408301856132a6565b818103606083015261471e81846146a4565b905095945050505050565b60008151905061473881612cae565b92915050565b60006020828403121561475457614753612c78565b5b600061476284828501614729565b9150509291505056fea2646970667358221220e122b4daf878ed23589cfa8be99626703759f4203a712adc06c8aa0bf5b1083264736f6c6343000810003368747470733a2f2f697066732e696f2f697066732f516d51736a5276737a576f504861437a754d54335a575835527344434c4745483639746f4c4c5067356d336a31742f",
    "linkReferences": {},
    "deployedLinkReferences": {}
}